:1000000001308A00DD2900008C1E04281A08BB007C
:100010008A11172A8C1E0A281A08BA008A111B2A6C
:100020008C1E10281A08B4008A111F2A8C1E16284C
:100030001A08B5008A11232AFA01BD0135083D07C7
:10004000A9003408AA000318AA0A2A08393C031890
:100050003428FF3A031D30282908EC3C03183428C3
:100060003A30AA00EC30A9002708B2002808B300F3
:1000700083160511831205118316051283120512CA
:10008000B0010130AF00B008031D65282F080E3CF9
:10009000031C6528AB01AA1AAB0AAC012B082C047F
:1000A000031D5428851155288515831685110512C1
:1000B0008312051683160512831205120310A90D6B
:1000C000AA0DAF0A0319B00A4328831685118312BB
:1000D00085118316051283120516831605128312E5
:1000E0000512831605128312051683160512831254
:1000F000051283160511831205158A11272A03306C
:10010000BD02031C8D283D308400831300080319B1
:100110008D288B288B28800B8A2808003E3084008D
:10012000831300080319A1280630F800F701F70B24
:100130009728F80B96287B30F700F70B9D28800B4B
:10014000942808008316061283120612831685105F
:1001500083128510831686118312861583168611E5
:10016000831286113908BD007F203908BD007F2029
:100170003908BD007F203908BD007F203808BE0047
:100180008E208C1AC428AA28831685108312851401
:1001900083160612831206168A112B2A8C1ECE286D
:1001A0001A08B6008316061083120614B001013037
:1001B000AF00B008031DF7282F08083C031CF728E0
:1001C00083160512831205122610B61B2614261854
:1001D000EB288511EC2885158316851105128312ED
:1001E00005160310B60DAF0A0319B00AD9288316F5
:1001F0000610831206108A112F2A8C1EFD281A0859
:10020000B7008316861083128614B0010130AF0048
:10021000B008031D26292F08083C031C2629831635
:100220000512831205122610B71B261426181A2948
:1002300085111B2985158316851105128312051654
:100240000310B70DAF0A0319B00A082983168610E8
:10025000831286108A11332A3A08BD003B08BE007B
:10026000F701F8013D0803103E18F707F70CF80CEA
:10027000BE18F707F70CF80C3E19F707F70CF80C47
:10028000BE19F707F70CF80C3E1AF707F70CF80C35
:10029000BE1AF707F70CF80C3E1BF707F70CF80C23
:1002A000BE1BF707F70CF80CAE017808AD008316FB
:1002B0000612831206128316851083128510831688
:1002C00086118312861583168611831286113908CA
:1002D000BD007F203908BD007F203908BD007F2088
:1002E0003908BD007F203808BE008E208C1A832973
:1002F0002D080319AE03AD03AE08031D5F292D08B9
:10030000003C031C5F2983168510831285148A1113
:10031000372A8C1E89291A08B8001030F700F70B0D
:100320008F2900008C1E92291A08B9008A113B2AD5
:1003300058300C1E99299900831606128312061252
:100340000230BD00FA30BE008E20BD0BA2298316FC
:100350000612831206166430BE008E208A113F2AD0
:1003600059300C1EB1299900831606128312061209
:100370000230BD00FA30BE008E20BD0BBA298316B4
:100380000612831206160230BD00FA30BE008E201F
:10039000BD0BC52983160612831206120230BD005A
:1003A000FA30BE008E20BD0BD029831606128312B0
:1003B00006166430BE008E20080003081F39830033
:1003C000813083169900A6309800903083129800EF
:1003D0000330A700A80183161F129F121B08803943
:1003E0009B0007309C0083138312A001A101831698
:1003F00005108312051083168510831285148C1E38
:10040000FF291A08B10031084A3C031DFF298C1E40
:10041000072A1A08B1003108403C031DFF298C1E31
:100420000F2A1A08B1003108473C03190428310883
:10043000483C03190A2831084C3C0319102831089C
:100440004D3C031916283108503C03191C2831086B
:10045000613C0319A2283108643C0319CE283108F5
:10046000653C0319FD283108673C03192C29310824
:10047000753C031989293108783C031998293108FA
:10048000793C0319B02131087A3C0319B021FF29C6
:02049000630007
:04400E00623FFF3FCF
:00000001FF
;PIC16F88
;CRC=08F0  CREATED="11-Oct-22 16:05"
