:1000000081EF03F0423130004231310042313200A1
:100010004231330042313400EA6A2B0EE96EEF5070
:100020000DE0060E016E006A002EFED7012EFBD7F2
:100030007B0E006E002EFED7EF2EF3D712009EAA85
:10004000FED7ABCF04F0AECF01F004A202D0AB9844
:10005000AB88120094988B98080E016E00D00000B7
:10006000018E0ED0019E2A32D8B08B88D8A08B98F2
:10007000018C06D0019C012EF6D700D000008B88A1
:10008000A70EE96EE92EFED700D001BEEBD701BC6A
:10009000F1D7120027C02AF0DDDF010E2B6EBCDF86
:1000A000400E2A6ED7DF010E2B6EB6DF610E2A6E70
:1000B000D1DF610E9EA8FED7AD6E95928C92D7EFE0
:1000C00003F0BDDF01C025F027C02AF0C3DF00D058
:1000D00000D00000400E2A6EBDDF00D000D000002E
:1000E000640E2A6EB7DF00D000D0000025C02AF0D1
:1000F000B1DF640E9EA8FED7AD6EDBEF03F09FDF8D
:1001000001C026F027C02AF0A5DF00D000D00000F3
:10011000400E2A6E9FDF00D000D00000650E2A6ED0
:1001200099DF00D000D0000026C02AF093DF650ED2
:100130009EA8FED7AD6EDFEF03F0030E2A5E09E343
:10014000EA6A2A0EE96EEF5004E001D000D0EF2EEB
:10015000FDD7120023502402F350166A156E9592B3
:100160008C9227C02AF076DF010E2B6E55DF400EF1
:100170002A6E70DF010E2B6E4FDF670E2A6E6ADF6C
:1001800096908D8096908D9022C02AF0D6DF22C066
:100190002AF0D3DF22C02AF0D0DF22C02AF0CDDF40
:1001A00021C02BF039DF9EBA09D01550D8B41606FD
:1001B00015061652E5E115500008E2E34B0E9EA825
:1001C000FED7AD6E95928C82E3EF03F038DF01C06D
:1001D00023F027C02AF03EDF00D000D00000400E00
:1001E0002A6E38DF00D000D00000480E2A6E32DFC1
:1001F00000D000D0000023C02AF02CDF480E9EA8BB
:10020000FED7AD6EE7EF03F01ADF01C024F027C080
:100210002AF020DF00D000D00000400E2A6E1ADF46
:1002200000D000D00000470E2A6E14DF00D000D0AE
:10023000000024C02AF00EDF470E9EA8FED7AD6E48
:10024000EBEF03F00900F5520DE0F6CF2AF0F7CFFF
:100250002BF0F5509EA8FED7AD6E2AC0F6FF2BC03E
:10026000F7FFF0D71200EBDE01C020F0202C0AD0FF
:10027000410E276E420E9EA8FED7AD6E310E9EA88F
:10028000FED7AD6E2050020809E1420E276E9EA8EF
:10029000FED7AD6E320E9EA8FED7AD6E205003087D
:1002A0000AE1430E276E420E9EA8FED7AD6E330EB6
:1002B0009EA8FED7AD6E205004080AE1440E276EBA
:1002C000420E9EA8FED7AD6E340E9EA8FED7AD6E30
:1002D000205005080AE1450E276E420E9EA8FED763
:1002E000AD6E350E9EA8FED7AD6E205006080AE111
:1002F000460E276E420E9EA8FED7AD6E360E9EA805
:10030000FED7AD6E205007080AE1470E276E420E59
:100310009EA8FED7AD6E370E9EA8FED7AD6E2050BC
:1003200008080AE1480E276E420E9EA8FED7AD6E61
:10033000380E9EA8FED7AD6E205009080AE1490E7E
:10034000276E420E9EA8FED7AD6E390E9EA8FED730
:10035000AD6E20500A0807E14A0E276E040EF66EB5
:10036000000EF76E6FDF20500B0807E14B0E276E73
:10037000080EF66E000EF76E65DF20500C0807E1E0
:100380004C0E276E0C0EF66E000EF76E5BDF2050E3
:100390000D0807E14D0E276E100EF66E000EF76E7B
:1003A00051DF20500E0807E14E0E276E140EF66E38
:1003B000000EF76E47DFEFEF03F041DE01C01EF0E5
:1003C00027C02AF047DE00D000D00000400E2A6E81
:1003D00041DE00D000D000004C0E2A6E3BDE00D083
:1003E00000D000001EC02AF035DE4C0E9EA8FED7BD
:1003F000AD6EF3EF03F023DE01C01FF027C02AF03B
:1004000029DE00D000D00000400E2A6E23DE00D08E
:1004100000D000004D0E2A6E1DDE00D000D000007E
:100420001FC02AF017DE4D0E9EA8FED7AD6EF7EF67
:1004300003F02A502C02F3CF01F0F4CF00F02D028C
:10044000F35000262B502C02F3500020026E30EFA8
:1004500002F02B6A1EC02AF0010E2D6E2C6AE9D71D
:100460001F5001240D6E000E02200E6E0EC012F001
:100470000DC011F00BC01CF00CC01DF0929A899AAF
:1004800092988998196A010E186E195218E118503D
:10049000040815E30F6A1CB60F2A106A0F501010DB
:1004A00002E1899601D089869296929889889298DD
:1004B0008998D8901C36182AD8B4192AE6D7196A10
:1004C000010E186E195218E11850040815E30F6A4E
:1004D0001DB60F2A106A0F50101002E1899601D044
:1004E000898692969298898892988998D8901D3694
:1004F000182AD8B4192AE6D7196A010E186E1952AB
:1005000019E118500E0816E30F6A0EBA0F2A106A86
:100510000F50101002E1899601D089869296929828
:10052000898892988998D8900D360E36182AD8B4B2
:10053000192AE5D7929889889298899892988988FB
:1005400092988998929A898A27C02AF083DD00D0F0
:1005500000D00000400E2A6E7DDD00D000D00000EB
:10056000500E2A6E77DD00D000D0000011C02AF0B6
:1005700071DD500E9EA8FED7AD6EFBEF03F05FDD80
:1005800001C021F000D000D0000059DD01C022F0F0
:1005900027C02AF05FDD00D000D00000400E2A6E98
:1005A00059DD00D000D00000750E2A6E53DD00D05A
:1005B00000D0000021C02AF04DDD00D000D00000A6
:1005C00022C02AF047DD100E006E002EFED700007C
:1005D000750E9EA8FED7AD6EFFEF03F0780E2A6E63
:1005E00039DD780E9EA8FED7AD6E95928C8203EF12
:1005F00004F095928C92C80E2B6E0EDD95928C8233
:10060000C80E2B6E09DD27C02AF024DD010E2B6EEB
:1006100003DD400E2A6E1EDD010E2B6EFDDC780E12
:100620002A6E18DD780E9EA8FED7AD6E07EF04F097
:1006300095928C92C80E2B6EEFDC95928C82C80E30
:100640002B6EEADC95928C92C80E2B6EE5DC9592AF
:100650008C82C80E2B6EE0DC27C02AF0FBDC010E7A
:100660002B6EDADC400E2A6EF5DC010E2B6ED4DC2C
:10067000790E2A6EEFDC790E9EA8FED7AD6E0BEFD9
:1006800004F095928C92C80E2B6EC6DC95928C82EB
:10069000C80E2B6EC1DC95928C92C80E2B6EBCDC02
:1006A00095928C82C80E2B6EB7DC95928C92C80EF8
:1006B0002B6EB2DC95928C82C80E2B6EADDC27C0FF
:1006C0002AF0C8DC010E2B6EA7DC400E2A6EC2DCBD
:1006D000010E2B6EA1DC7A0E2A6EBCDC7A0E9EA86F
:1006E000FED7AD6E0FEF04F0959C8C9C959E8C9E72
:1006F0000A0E2B6E91DC959E8C8E959C8C8C13EF44
:1007000004F0F86AD09E046AB886080EAF6E020E36
:10071000B06EA60EAC6E900EAB6E0000000094980A
:100720008B88030E0B6E0C6A296A286AC150C00BB5
:100730000F09C16E070EB46E056A066A959C8C8C13
:10074000959E8C8E95928C92040E2A6EC80E2B6EFE
:1007500063DC2A2EFBD795928C82020E2A6EFA0E4B
:100760002B6E5ADC2A2EFBD795928C92020E2A6EA3
:10077000C80E2B6E51DC2A2EFBD795928C8293905B
:100780008A80959A8C8A93928A8293948A8493968B
:100790008A8693988A88939A8A8A050E2B6E3CDC07
:1007A0004EDC01C01AF01A506108D8B473D41A5044
:1007B0006408D8B486D41A506508D8B4A0D41A50A6
:1007C0006708D8B4C7D41A504808D8B4FFD41A5010
:1007D0004708D8B419D51A50490801E144D51A5030
:1007E0004C08D8B4EAD51A504D08D8B404D61A50DB
:1007F0005008D8B42ED61A507508D8B4C0D61A509E
:10080000780801E1EBD61A50410801E1F2D61A50FE
:100810004208D8B40DD71A50460801E132D71A5011
:0A0820005208D8B461D7BCD703001A
:020000040030CA
:0E00000000C21E1E008781000FC00FE00F40DF
:00000001FF
;PIC18LF4420
;CRC=A8E1  CREATED="03-Oct-22 13:24"
