:1000000002308A005C2A0000831606158312061946
:1000100007280830F700BD01F7171C28F7131C2824
:10002000031006190314BD0C77171C287713F70B60
:1000300010283D08F8002828A730F71B2D30F800BD
:10004000F80B20280000F71B0E28771B1628102815
:10005000080004207808BB008A118F2A0420780841
:10006000BA008A11932A04207808B4008A11972ACA
:1000700004207808B5008A119B2AFA01BD013508D1
:100080003D07A9003408AA000318AA0A1430A902DF
:100090000530031C0630AA022708B2002808B30066
:1000A000831605118312051183160512831205129A
:1000B000B0010130AF00B008031D7C282F08043CBC
:1000C000031C7C28AB01B219AB0AAC012B082C0431
:1000D000031D6C2885116D28851583168511051261
:1000E0008312051683160512831205120310B20D32
:1000F000AF0A0319B00A5B28B0010130AF00B008A5
:10010000031DA0282F08043C031CA028AB01B31931
:10011000AB0AAC012B082C04031D902885119128F3
:10012000851583168511051283120516831605128F
:10013000831205120310B30DAF0A0319B00A7F280A
:10014000B0010130AF00B008031DC5282F080E3CD8
:10015000031CC528AB01AA1AAB0AAC012B082C045E
:10016000031DB4288511B528851583168511051240
:100170008312051683160512831205120310A90DAA
:10018000AA0DAF0A0319B00AA32883160512831219
:1001900005168316051283120512831605128312A3
:1001A0000516831605128312051283160511831294
:1001B00005158A119F2A0330BD02031CE9283D3032
:1001C0008400831300080319E928E728E728800B37
:1001D000E62808003E308400831300080319FD2838
:1001E0000630F800F701F70BF328F80BF2287B3004
:1001F000F700F70BF928800BF0280800831605108C
:1002000083120510831606128312061283168510B8
:10021000831285140430F700F70B0C290F2983167D
:10022000861183128615831686118312861139086A
:10023000BD00DB203908BD00DB203908BD00DB2014
:100240003908BD00DB203808BE00EA20061D292938
:100250000F298316851083128514831606128312C4
:1002600006168A11A32A04207808B6008316061001
:1002700083120614B0010130AF00B008031D5B29E2
:100280002F08083C031C5B298316051283120512F4
:100290002610B61B261426184F29851150298515BE
:1002A000831685110512831205160310B60DAF0AC9
:1002B0000319B00A3D2983160610831206108A110D
:1002C000A72A04207808B7008316861083128614A4
:1002D000B0010130AF00B008031D89292F08083C88
:1002E000031C892983160512831205122610B71BD9
:1002F000261426187D2985117E29851583168511DA
:100300000512831205160310B70DAF0A0319B00AC0
:100310006B2983168610831286108A11AB2ABE01C0
:100320003A08BD003E08C0003D08BF00C2013B08BE
:10033000C1001030C300F701FA01C00CBF0C031C50
:10034000A7294108F7070318FA0A4208FA07FA0C26
:10035000F70CF90CF80CC30B9D297908AE0078084E
:10036000AD00831685108312851483160510831241
:1003700005141030F700F70BBB2900008316860127
:10038000283083128600831686018312860139087D
:10039000BD00DB203908BD00DB203908BD00DB20B3
:1003A0003908BD00DB203808BE00EA202D080319FB
:1003B000AE03AD03AE08031DBE292D08003C031C8F
:1003C000BE29E229E32900008316051083120510D7
:1003D0008A11AF2A04207808B8001030F700F70B14
:1003E000EF29000004207808B9008A11B32A831687
:1003F0000510831205100830F800FE290000F817D8
:100400000F2AF813BD0C03180514031C05107817E8
:100410000F2A7813F80B022A0D2A00000514A730C2
:100420008400840B112A142AF81B012A781B092A3C
:1004300008005830BD00F7218316061283120612F9
:100440000230BD00FA30BE00EA20BD0B222A83161E
:100450000612831206166430BE00EA208A11B72AFB
:100460005930BD00F721831606128312061202309E
:10047000BD00FA30BE00EA20BD0B392A83160612F1
:10048000831206160230BD00FA30BE00EA20BD0B12
:10049000442A83160612831206120230BD00FA3077
:1004A000BE00EA20BD0B4F2A8316061283120616E1
:1004B0006430BE00EA20080003081F398300831659
:1004C0000510831205140330A700A80183161F121C
:1004D0009F121B0880399B0007309C0083138312F6
:1004E000A001A10183160510831205108316851043
:1004F0008312851404207808B10031084A3C031D9A
:100500007A2A04207808B1003108403C031D7A2A79
:1005100004207808B1003108473C03192928310824
:10052000483C03192E2831084C3C03193328310864
:100530004D3C031938283108503C03193D28310837
:10054000613C0319FE283108643C03193329310842
:10055000653C031961293108673C03198F2931086B
:10056000753C0319EA293108783C0319192A310826
:10057000793C0319302231087A3C031930227A2A57
:02058000630016
:04400E00623FFF3FCF
:00000001FF
;PIC16F88
;CRC=A00B  CREATED="19-Feb-19 10:31"
